{
  "contractName": "CarContract",
  "abi": [
    {
      "anonymous": false,
      "inputs": [
        {
          "indexed": false,
          "internalType": "address",
          "name": "senderAddress",
          "type": "address"
        },
        {
          "indexed": false,
          "internalType": "string",
          "name": "carData",
          "type": "string"
        }
      ],
      "name": "CarDataAdded",
      "type": "event"
    },
    {
      "constant": false,
      "inputs": [
        {
          "internalType": "string",
          "name": "_carData",
          "type": "string"
        }
      ],
      "name": "postData",
      "outputs": [],
      "payable": false,
      "stateMutability": "nonpayable",
      "type": "function"
    }
  ],
  "bytecode": "0x608060405234801561001057600080fd5b506102f6806100206000396000f3fe608060405234801561001057600080fd5b506004361061002b5760003560e01c80632325e66d14610030575b600080fd5b61004a600480360361004591908101906100dc565b61004c565b005b7f6311fcf8982624d2fbb8746ca2bab5b9cbd4719634a6ee00fe61744c95409ab7338260405161007d929190610165565b60405180910390a150565b600082601f83011261009957600080fd5b81356100ac6100a7826101c2565b610195565b915080825260208301602083018583830111156100c857600080fd5b6100d3838284610260565b50505092915050565b6000602082840312156100ee57600080fd5b600082013567ffffffffffffffff81111561010857600080fd5b61011484828501610088565b91505092915050565b6101268161022a565b82525050565b6000610137826101ee565b61014181856101f9565b935061015181856020860161026f565b61015a816102a2565b840191505092915050565b600060408201905061017a600083018561011d565b818103602083015261018c818461012c565b90509392505050565b6000604051905081810181811067ffffffffffffffff821117156101b857600080fd5b8060405250919050565b600067ffffffffffffffff8211156101d957600080fd5b601f19601f8301169050602081019050919050565b600081519050919050565b600082825260208201905092915050565b600073ffffffffffffffffffffffffffffffffffffffff82169050919050565b60006102358261023c565b9050919050565b60006102478261024e565b9050919050565b60006102598261020a565b9050919050565b82818337600083830152505050565b60005b8381101561028d578082015181840152602081019050610272565b8381111561029c576000848401525b50505050565b6000601f19601f830116905091905056fea365627a7a723158206e5f20e24223695f4c518965c572aa8a6dcd2be753328a7c102aa6d781ad1fda6c6578706572696d656e74616cf564736f6c63430005100040",
  "source": "pragma solidity >=0.4.16 <0.9.0;\npragma experimental ABIEncoderV2;\n\ncontract CarContract {\n    enum CarType {\n        Passenger, // possibly extend to Sedan, Coupe, etc.\n        Lorry\n    }\n\n    struct UFixed {\n        uint number; // solidity does not support floats\n        int dotPosition;\n    }\n\n    struct Position {\n        UFixed latitude;\n        UFixed longitude;\n    }\n\n    struct Wind {\n        UFixed speed;\n        UFixed degree;\n    }\n\n    struct Weather {\n        string units; // metric / imperial\n        UFixed temperature;\n        uint humidity;\n        Wind wind;\n    }\n\n    struct CarData {\n        string carBrand;\n        CarType carType;\n        Weather weather;\n        Position position;\n        int speed;\n        uint timestamp; // now is current time in unix epoch\n    }\n\n    event CarDataAdded(address senderAddress, string carData);\n\n    function postData(string memory _carData) public {\n        emit CarDataAdded(msg.sender, _carData);\n    }\n}",
  "sourcePath": "/Users/jakubkosior/Development/better-typed/zf-hackaton/contract/contracts/Contract.sol",
  "compiler": {
    "name": "solc",
    "version": "0.5.16+commit.9c3226ce.Emscripten.clang"
  },
  "schemaVersion": "3.4.4",
  "updatedAt": "2022-01-06T00:58:12.751Z",
  "networkType": "ethereum",
  "devdoc": {
    "methods": {}
  },
  "userdoc": {
    "methods": {}
  }
}